:0F00000011230200051182117B11EC11EC11ECA0
:10000F0011EC11EC11EC11EC11EC11EC11EC11ECF9
:10001F0011EC80E4C2B5743811C311EC11C311ECAB
:0F002F00740611C312003C12004A11CF2211CFE8
:10003E00740F11C32211CF740411C32211CF740196
:10004E0011C32211CF740211C32211CF741011C328
:0F005E002211CF741411C32211CF742011B722B5
:10006D0011CF74C011C32211CF741811C32211CF37
:0F007D00741C11C322C0E090010B11CF740093CB
:10008C00B4000302009911B7A3740080EED0E022F3
:10009C00C0E01200CFE5F030E708C2E7243FD2E71A
:0F00AC0001B29401D2E711C3D0E022C2B6D2B79D
:1000BB00F590D2B500C2B522C2B6C2B7F590D2B593
:1000CB0000C2B5227590FFD2B6C2B7D2B500E5908B
:1000DB00C2B520E7EF2274F8D5E0FD74F9D5E0FD49
:0F00EB002211E111E111E111E111E111E111E146
:1000FA0011E111E111E111E111E111E111E111E166
:10010A00225155454D204548204C454F4E415244B9
:04011A004F203F0033
:00000001FF
