:1000000075B004010575B0FF75304475314975321E
:100010005375335475344175354E753643753749CC
:1000200075384175393A753A32753B00753C0011A7
:100030007F119C11B7D2A57930E76005114F098077
:10004000F8743011D211F1D2A52430114F80F4A2EE
:10005000E792A3A2E692A2A2E592A1A2E492A0D284
:10006000A4C2A4A2E392A3A2E292A2A2E192A1A2BC
:10007000E092A0D2A4C2A4117A227832D8FE22C281
:10008000A5C2A3C2A2D2A1C2A0D2A4C2A4117AD2F4
:10009000A4C2A4D2A3D2A4C2A4117A22C2A3C2A28F
:1000A000C2A1C2A0D2A4C2A4C2A3D2A2D2A1C2A001
:1000B000D2A4C2A4117A22C2A3C2A2C2A1C2A0D257
:1000C000A4C2A4D2A3D2A2D2A1D2A0D2A4C2A4116B
:1000D0007A22C2A5C2A3C2A2C2A1D2A0D2A4C2A4A3
:1000E000C2A5C2A3C2A2C2A1C2A0D2A4C2A4117AB4
:1000F00022C2B0758C00758A00314F310C30B2FDD0
:10010000E58A3113C3314315F0E5F0227588107587
:1001100089012275880022C0F075F014D5F0FDD059
:10012000F02278A0790875F0FFD5F0FDD8F8D9F65F
:1001300022783B75F0FFD5F0FDD8F822158C74FFBE
:10014000C38000943A05F050FAE58CB500EE22D257
:10015000B000000000000000000000C2B0313122F9
:00000001FF