:10000000020003740075F0AA12003D74001200147F
:100010008FB080FE12005E7FA012009A12007BFF5C
:0E00200012009A12007B12005E7FA112009A5D
:0F002E0012007B1200A7D2A112008D12006D22CA
:0F003D0012005E7FA012009A12007BFF12009A41
:0E004C0012007BAFF012009A12007B12006DC2
:10005A001200BE22D2A0D2A100C2A100000000005C
:10006A00C2A022C2A1D2A000000000D2A100C2A058
:0F007A0022C2A0D2A10000D2A000000000A2A1CB
:10008900C2A0002200000000D2A000000000C2A00F
:10009900227D08C2A0EF3392A1118DDDF9227D08DE
:0F00A900D2A1C300000000D2A0000000A2A1332A
:1000B800C2A0DDF0FF22115E7FA0119A117B40F6ED
:0300C800116D2295
:00000001FF
