:10000000020003C2B275A000120071D28C7589097A
:1000100002001312001B12005480F8D2A700000047
:0F00200000000000000000C2A730B2FD20B2FDBA
:10002F007F007D0075F03AE58A842FFFE5F02DFD06
:10003F00AE8CBE000875F03AED842FFF22758AFF53
:10004F00D58CE180DFEFA2E092A0A2E192A1A2E223
:0E005F0092A2A2E392A3A2E492A4A2E592A52B
:0F006D00120071227A64120078DAFB78FF79FFB3
:05007C00D8FED9FE22B0
:00000001FF
