:03000000020052A9
:07000B00D566240200223239
:10001B00D5672C02003A32C28CD2A275F008315C43
:0F002B00741A3179756640758C0B758ADC01117A
:10003A00C28ED2A375F088315C741A3179756780E3
:0F004A00758D0B758BDC0111C28EC28C758911FF
:0F00590075A88A758C0B758ADC758D0B758BDC21
:0F006800756640756780313475F001315C740046
:0F0077003179741A317975F081315C74083179FF
:0E008600741A3179208C1020A00DD28CC2A2E9
:0F00940075F008315C74103179208E1020A10DA9
:0F00A300D28EC2A375F088315C7410317980D889
:1000B20031A1C0E011BED0E0C411BE22C2E3C2E24F
:1000C200C2E1C2E011E02231A1C0E011D5D0E0C40A
:1000D20011D522C2E3C2E2C2E1D2E011E0227B03E7
:1000E20011EA33B2E2DBF922C0E0744ED296D29723
:0F00F200318FC297318F780833C2969297318F32
:0F010100D296318FD8F3D0E03129780833C296E7
:100110009297318FD296318FD8F33129C296C297F8
:0F012000318FD296318FD29722C296D297318FDC
:0F012F00D296318F22743011E0743031A611E076
:10013E00743031A611E0742031A611E0742811B28A
:10014E00740611B23174315722740111B222C0E01B
:0F015E00E5F030E708C2E7243FD2E7216F9401B4
:0F016D00D2E711B2D0E022740F11B2229001C577
:10017C00C0E093B40005D0E002018E11C9A3D0E019
:0F018C0080EE22000022C0E074F8D5E0FD74F987
:0F019B00D5E0FDD0E022319231922231923192A3
:1001AA00319231923192319231923192319231922D
:1001BA0031923192319231923192224C454420311E
:1001CA003A20004C454420323A20004C49474144E9
:0F01DA004F202020004445534C494741444F00DB
:00000001FF
