:1000000002000312003E748075F0001200607482DA
:1000100075F000120060748475F000120060748640
:0E00200075F000120060748512006EBF00F8CB
:10002E0012005D748512006EBF60F812005D80E8EC
:0E003E00C2A0C2A1748E75F000120060749012
:10004C0075F0A4120060748075F000120060C2A3F9
:0F005C0022B2A322D2A0FF120077AFF0120077DA
:0F006B00C2A022D2A0FF1200B9C2A022EFA2E0D1
:10007A0092A2D2A1C2A1A2E192A2D2A1C2A1A2E25B
:10008A0092A2D2A1C2A1A2E392A2D2A1C2A1A2E447
:10009A0092A2D2A1C2A1A2E592A2D2A1C2A1A2E633
:0F00AA0092A2D2A1C2A1A2E792A2D2A1C2A12288
:1000B9001177A2A292E0D2A100C2A100A2A292E16C
:1000C900D2A100C2A100A2A292E2D2A100C2A100C3
:1000D900A2A292E3D2A100C2A100A2A292E4D2A15B
:1000E90000C2A100A2A292E5D2A100C2A100A2A2CF
:0F00F90092E6D2A100C2A100A2A292E7D2A1007A
:0F010800C2A100FF227CFF78FF79FF7AFF7BFF07
:0A011700D8FED9FEDAFEDBFEDCEEB6
:00000001FF
