:100000000102111575F08212014912013112012508
:1000100012016480F87A03317875E030113ADAF72A
:0F00200075E020113A75E02C117275E00F117226
:10002F0075E001117275E0021172227B0311A93381
:0F003F00B2E2DBF922C0E012016D12016DD0E0D8
:0F004E0075F0013392F73392F63392F53392F453
:10005D00C0E011A3D0E03392F73392F63392F5332B
:0F006D0092F411A322C0E012016D12016DD0E0D8
:0F007C0075F0003392F73392F63392F53392F426
:10008B00C0E011A3D0E075F0003392F73392F63352
:10009B0092F53392F411A32285F0E0113A22C0E0DD
:0F00AB00744ED296D2973161C297316178083383
:0E00BA00C29692973161D2963161D8F3D0E0B0
:1000C8001200EA780833C29692973161D29631616C
:0F00D800D8F31200EAC296C2973161D296316115
:0E00E700D29722C296D2973161D29631612211
:0F00F50075E00F11722275E00411722275E0019F
:0F01040011722275E00211722275E01011722241
:0F01130075E01411722275E02011442275E0C0CE
:0F01220011722275E01811722275E01C11722201
:10013100C0E0900197740093B4000302014611449A
:0F014100A3740080F0D0E022C0E0E5F030E708C2
:10015000C2E7243FD2E7215C9401D2E71172D0E0DC
:0F016000220000227FFD7E3BDEFEDFFA2274F8D4
:0F016F00D5E0FD74F9D5E0FD22316D316D316DB4
:10017E00316D316D316D316D316D316D316D316D81
:10018E00316D316D316D316D225155454D204548E2
:0C019E00204C454F4E4152444F203F0082
:00000001FF
