:100000000200064100007435C0E0742FC0E0742B7C
:10001000C0E07429C0E07425C0E0741FC0E0741D06
:10002000C0E07417C0E07413C0E07411C0E0740D38
:10003000C0E0740BC0E07407C0E07405C0E0740356
:10004000C0E07402C0E07817791775E000900003F3
:1000500093B4000590000380F7A312006E2402FF02
:0E006000E62F117F740018B807E6781780E2CB
:10006E00B4200D2402FFE62F117F7400781780D282
:0E007E002297940219118CB9070A7917019282
:07008C00B420037917E722FD
:00000001FF
