:10000000020006D2D632D2A7D2B275A88175B80145
:0F0010007588007F007E227D001200531200537E
:0F001F00120053120053120053120053120053D9
:0F002E0012005312005312005312005320D60732
:10003D0020A7D9D2D680D51200770DBD22CE7F0054
:10004D007E22C2D680C6D2A078F9D8FEEF12008BE0
:10005D00D5E0FA7AFFDAFE7A56DAFE7A11120082CC
:10006D00DAF9EE12008BD5E0FA228FE005E0AFE071
:10007D00EE9401FE2278F779F8D8FED9FE22781891
:03008D00D8FE2278
:00000001FF
