:1000000075304475314975325375335475344175C3
:10001000354E75364375374975384175393A753AF5
:1000200031753B00753C001177119411AFD2937973
:1000300030E7600511470980F8743011CA11E911E1
:1000400072D293114780F4A2E79297A2E69296A209
:10005000E59295A2E49294D292C292A2E39297A2E0
:10006000E29296A2E19295A2E09294D292C292116B
:1000700072227832D8FE22C293C297C296D295C21B
:1000800094D292C2921172D292C292D297D292C25A
:1000900092117222C297C296C295C294D292C29213
:1000A000C297D296D295C294D292C292117222C2B3
:1000B00097C296C295C294D292C292D297D296D249
:1000C00095D294D292C292117222C293C297C296D2
:1000D000C295D294D292C292C293C297C296C2954E
:1000E000C294D292C292117222758C00758A00D28B
:1000F000B700000000000000000000C2B731393036
:10010000A0FD311520A0FDE58A311CC3314D15F04D
:10011000E5F0311F2275881075890122C28D22C039
:10012000F075F014D5F0FDD0F02278A0790875F0C4
:10013000FFD5F0FDD8F8D9F6227861790875F0FF7F
:10014000D5F0FDD8F822158C74FFC38000943A05D1
:09015000F050FAE58CB500EE2236
:00000001FF